S00E00006C6162335F332E7372656322
S113000045C000004BC0000049C0000047C00000CC
S113001045C0000043C0000041C000003FC00000D4
S11300203DC000003BC0000039C0000037C00000E4
S113003035C0000033C0000031C000002FC00000F4
S11300402DC000002BC0000029C0000027C0000004
S113005025C0000023C0000021C000001FC0000014
S11300601DC000001BC0000019C0000017C0000024
S113007015C0000013C0000011C000000FC0000034
S11300800DC000000BC0000009C0000011241FBEF9
S1130090CFEFD0E4DEBFCDBF1ED03BC0B1CF01E077
S11300A0803019F0000F8A95FBCF089575B1F7DF02
S11300B0702B75B9089575B1F2DF1FEF0127702316
S11300C075B9089570B1EBDF000F000F702309F4C8
S11300D001C00895089511B88FEF84B981E0F2DF6B
S11300E08823E1F383E0E2DF2FEF89E698E12150F2
S11300F080409040E1F700C0000083E0DCDF2FEF98
S113010089E698E1215080409040E1F700C000006A
S1090110E5CFF894FFCFD7
S9030000FC
